:040000008A11112828
:10000800FE00030EF9000408FA000A08FB00831238
:1000180003137F08FC008A1130288A111328F00185
:10002800F101F201F301F401F501F601AA01AB01B6
:10003800AC01AD0183132A30FD000030FE008C3086
:10004800FF00203084008A1170208A118A119620BE
:10005800FD0083018A115B28F6017608A43EF700AB
:100068000F3003181030F80078087102031D3E287D
:1000780077087002031C4828061C442806104528E7
:100088000614F001F1014E280130F0070318F10AB7
:100098000030F1078B180B117C08FF007B088A00E1
:1000A8007A088400790E8300FE0E7E0E09008A11FC
:1000B8007C208A11F401F50183120313061F6A28B4
:1000C8000130F4070318F50A0030F50786016028A7
:1000D8007E088A007F0882006C208A118000840ACA
:1000E80004087D0603190034FF0A0319FE0A702864
:1000F8006C30831603138F009B018601FF30850047
:100108008513051085108F308100A0308B00080002
:100118003F340B345B344F3466346D347D340734EC
:060128007F346F34033444
:04400E00D1FFFFFFE0
:00000001FF
